:020000040800F2
:10000000101200203D070008E51F0008E91F000846
:10001000ED1F0008F11F0008F51F00080000000098
:10002000000000000000000000000000F91F0008B0
:10003000FD1F000800000000012000080520000846
:100040003907000839070008390700083907000890
:100050003907000839070008390700083907000880
:100060003907000839070008390700083907000870
:100070003907000839070008390700083907000860
:100080003907000839070008390700080920000867
:100090006D0800083907000839070008390700080B
:1000A0003907000839070008390700083907000830
:1000B000998B000841080008390700083907000833
:1000C0003907000839070008390700083907000810
:1000D0003907000839070008390700083907000800
:1000E00039070008390700080D200008000000004B
:1000F0000000000000000000000000000000000000
:1001000000000000000000005FF808F1284A0388A2
:1001100090429BB212D002F5006290420ED0B0F134
:10012000804F0BD0A2F59832904207D002F5806242
:10013000904203D002F58062904203D14A8823F0B6
:10014000700313431B4A90422AD002F5806290420A
:1001500026D0CA8870B423F44073154C8E880D885D
:100160009BB21343A04203808685058512D0124BB3
:1001700098420FD003F5406398420BD003F580639B
:10018000984207D003F58063984203D070BC0123E6
:10019000838270470B7A70BC038601238382704789
:1001A00003808B8883850B880385012383827047B6
:1001B000002C01400010004000340140038829B9A0
:1001C00023F001031B041B0C038070479BB243F018
:1001D00001030380704700BF83899BB21AB923EAE9
:1001E000010181817047194381817047C94389B2F8
:1001F00001827047022810B50C460CD90D4B1F2206
:100200000D481A8001F0AEFD204601F0ABFD0B4811
:1002100005F082F8FEE740F2FF72064B06481A80AE
:1002200001F0A0FD204601F09DFDBDE8104003480F
:1002300005F072B88C000020449F0008840700205D
:1002400010B5044C218001F08DFD4FF6FF73238023
:1002500010BD00BF8C0000202DE9F8430E46074674
:100260009146984601F57F2404F6FE74A4022046C8
:1002700001210022FFF7B0FFB01DC0B200F0C2F9AB
:10028000124A134B1268134DA3FB0232D209013AF2
:1002900029462046AA802F80FFF738FF20460121FB
:1002A000FFF7A4FF012120460A46FFF795FF3046DD
:1002B000494601F085FEB8FA88F1074B490953F821
:1002C0002600BDE8F843FFF779BF00BF8400002097
:1002D000D34D6210C40900200000002010B5044670
:1002E000054B012153F82000FFF780FF2046BDE8B1
:1002F000104001F063BE00BF0000002030B50024B4
:1003000083B00825FF2023464FF604314FF4C25234
:10031000009501F0B3FFFF2023464FF606314FF45E
:10032000C252009401F0AAFF4FF400630093FF2033
:100330004FF47B414FF4C252234601F09FFF03B0BC
:1003400030BD00BF30B54FF4044483B0FF2000231C
:1003500000944FF2C06100244FF4C2524FF40045A4
:1003600001F08CFFFF20234600954FF280614FF48F
:10037000C25201F083FF4FF48055FF2023464FF215
:1003800080614FF4C252009401F078FFFF202346B1
:1003900000954FF2846155254FF4C25201F06EFF73
:1003A000FF20234600954FF627214FF4C052AA257F
:1003B00001F064FFFF2023464FF627214FF4C0527F
:1003C000009501F05BFF0094FF204FF658214FF499
:1003D000C252234601F052FF03B030BD30B540F2A7
:1003E0002004C2F20004258883B0FF20002300957A
:1003F0004FF644214FF4C25201F040FF6588FF20C0
:10040000002300954FF648214FF4C25201F036FF09
:10041000A588002007240146034600954FF4E252C8
:1004200001F02CFFFF20002300944FF650214FF4E1
:10043000C25201F023FF43F230050020014603467B
:100440004FF4E252009501F019FF002001460346E7
:1004500000944FF4E25201F011FF45F23004002005
:10046000014603464FF4E252009401F007FF3220A8
:1004700008F08AFB4FF480530093FF204FF60431BD
:100480004FF4C252002301F0F9FE03B030BD00BFAB
:10049000F0B5524E0024B77983B0514D2046214625
:1004A00042F28E42234600972C7001F0E7FEF67967
:1004B00023462046214642F28F420096494E01F0E3
:1004C000DDFEFF204FF4CA524FF6082101F0FEFE78
:1004D00032884AF608139A423BD0FF204FF6042197
:1004E0004FF4CA5201F0F2FE308843F2080188420C
:1004F0001CD1042129704FF47043FF2000934FF664
:10050000042100234FF4C25201F0B8FE642008F029
:100510003BFB2B78042B2FD0032B49D0022B41D04F
:10052000012B4BD0304801F01DFCFEE7FF204FF6B9
:1005300024214FF4CA5201F0C9FE2C4A138803F457
:10054000807081B2002928D0022028704FF4FE4329
:10055000D3E7A3F54452FF20234600924FF608212B
:100560004FF4C25203242C7001F088FE642008F07E
:100570000BFB2B78042BCFD11D4801F0F3FBFFF7C9
:10058000BDFE4FF47A7008F0FFFA1A4801F0EAFB5A
:100590002878022818D903B0F0BD01222A704FF440
:1005A0005343AAE7144801F0DDFBFFF717FFE8E724
:1005B000124801F0D7FBFFF7C5FEE2E7104801F053
:1005C000D1FBFFF70BFFDCE700230093FF204FF682
:1005D00021214FF4C05201F051FEDCE72000002041
:1005E000A8090020D00900208C8E0008D609002020
:1005F000588E00089C8E0008748E0008688E0008D3
:10060000808E0008062808D907280DD00BD9094B81
:10061000012153F8200001F053BC064B012153F88F
:10062000200001F041BC7047024B0121D86901F064
:100630002FBC00BF2C0000203B4B30B418683B4956
:1006400040F0010018605D6882B029405960196867
:10065000002021F0847121F48031196019684FF471
:100660001F0421F48021196059681A4621F4FE0103
:1006700059609C6000900190196841F480311960C4
:1006800003E0009BB3F5A06F09D0136803F40033B7
:100690000193009B01330093019B002BF1D0224B6F
:1006A0001B6813F4003318BF01230193019B012B36
:1006B00006D01F4B4FF000629A6002B030BC70470A
:1006C0001C4A194B1068194640F010001060106861
:1006D00020F003001060106840F0010010605A68BC
:1006E0005A605A685A605A685A605A6822F47C12F2
:1006F0005A605A6842F4A8125A601A6842F080722E
:100700001A600B68084A9B01FBD51146536823F019
:1007100003035360536843F0020353604B6803F0D4
:100720000C03082BFAD1C4E7001002400000FFF8C8
:1007300000ED00E000200240FEE700BF08B50D48D4
:100740000D4B984207D2C2431A4422F003020432EE
:100750000A4908F03DFA0A480A494FF00002884267
:10076000B8BF40F8042BFADBFFF766FFBDE808408E
:1007700000F02EBE0000002028050020489F000841
:10078000280500200C0E00200B0170B4C518D5F808
:10079000B04104F00404E4B21472ACBBD5F8B0412B
:1007A000640D1460D5F8B041034404F0020454729F
:1007B000D5F8B46103F5DC7406F00F069672D5F82F
:1007C000B4512D0AD574D3F8B851D572D3F8B851B5
:1007D0002D0A1573D3F8B8512D0C5573D3F8B831D1
:1007E0001B0E93736368D37363681B0A1374636887
:1007F0001B0C537463681B0E937451B170BC036976
:1008000043F0200303617047D5F8B041E408546019
:10081000C8E7C36870BC43F02003C360704700BFE3
:1008200010B5044601210448FFF7C8FC034BD86803
:1008300020EA0400D86010BD000400400010014010
:10084000084A10B5D368084C43F4005320460021F1
:10085000D360FFF7B3FC2046BDE810400121FFF74D
:10086000C5BC00BF001001400004004008B5074AA5
:1008700007480021FFF788FF06480121FFF79EFC8B
:10088000054AD36823F40053D36008BDB0090020A3
:1008900000640040000400400010014030B4CD78F6
:1008A000EB0648BF8B7805F00F0448BF1C430B884C
:1008B00013F0FF0F33D0482D026800F09980282DE7
:1008C00000F0FF80D90744BF22F00F0222439907AE
:1008D00044BF22F0F00242EA0412590744BF22F456
:1008E000706242EA0422190744BF22F4704242EACD
:1008F0000432D90644BF22F4702242EA0442990627
:1009000044BF22F4700242EA0452590644BF22F066
:10091000706242EA0462190600F19F800260FF2BB8
:1009200031D9482D426830D0282D00F09980D90562
:1009300044BF22F00F0222439D0544BF22F0F00283
:1009400042EA0412590544BF22F4706242EA0422CA
:100950001D0544BF22F4704242EA0432D90444BF68
:1009600022F4702242EA04429D0444BF22F4700241
:1009700042EA0452590444BF22F0706242EA04621F
:100980001B0467D4426030BC704703F4807189B2A5
:10099000002940F0D68003F4007189B2002940F0AC
:1009A000CA8003F4806189B2002940F0BE8003F45C
:1009B000006189B2002940F0B28003F4805189B20D
:1009C000002940F0C98003F4005189B2002940F0A9
:1009D000BD8003F4804189B2002940F0C38003F454
:1009E00000439BB2002BCDD064F31F720361C9E7B3
:1009F00013F0010140F0328103F0020189B20029B5
:100A000040F0268103F0040189B2002940F01A81E8
:100A100003F0080189B2002940F00E8103F01001B3
:100A200089B2002940F0028103F0200189B2002937
:100A300040F0F68003F0400189B2002940F0EA80DE
:100A400003F0800189B200293FF468AF64F31F729C
:100A5000016163E764F31F7294E764F31F725DE75B
:100A600003F4807189B2002940F0A68003F400717C
:100A700089B2002940F09A8003F4806189B200298C
:100A800040F08E8003F4006189B2002940F082803A
:100A900003F4805189B2002976D103F4005189B260
:100AA00000296BD103F4804189B2002960D103F49D
:100AB00000439BB2002B3FF465AF64F31F724361A8
:100AC00060E713F0010140F09A8003F0020189B25F
:100AD000002940F08E8003F0040189B2002940F023
:100AE000828003F0080189B2002976D103F0100159
:100AF00089B200296BD103F0200189B2002960D1AD
:100B000003F0400189B200297ED103F0800189B24F
:100B100000293FF403AF64F31F724161FEE622F443
:100B2000704242EA0432016147E722F4706242EA0D
:100B3000042201613BE722F0F00242EA0412016163
:100B40002FE722F00F022243016124E722F4700212
:100B500042EA045201613CE722F4702242EA044274
:100B6000016130E722F0706242EA0462016136E717
:100B700022F0706242EA0462416198E722F4700256
:100B800042EA045241618DE722F4702242EA0442B3
:100B9000416182E722F4704242EA0432416177E720
:100BA00022F4706242EA042241616BE722F0F00213
:100BB00042EA041241615FE722F00F0222434161E1
:100BC00054E722F4700242EA0452416198E722F4A9
:100BD000702242EA044241618DE722F4704242EA07
:100BE0000432416182E722F4706242EA04224161E8
:100BF00077E722F0F00242EA041241616BE722F04B
:100C00000F022243416160E722F0706242EA04620F
:100C100041617AE722F0706242EA046201610FE703
:100C200022F4700242EA0452016103E722F47022C6
:100C300042EA04420161F7E622F4704242EA0432D9
:100C40000161EBE622F4706242EA04220161DFE610
:100C500022F0F00242EA04120161D3E622F00F0210
:100C600022430161C8E600BF2DE9F041504DDFF895
:100C70004CE12E46DEF814404E4F44F00204CEF80C
:100C800014407C694FF02A0C44F002047C61A5F802
:100C90000CC03489464DE407FBD5AE46DFF814C1DD
:100CA000AC89DCF81040DFF8148144F00204CCF881
:100CB00010402E882C88404FA4B244F400642C804D
:100CC000D8F81040B6B244F00204C8F81040DCF87E
:100CD000144044F00204CCF8144097F800C060447B
:100CE000A881BEF80800324CC007FAD525466244F8
:100CF000A089A2812A892E48D207FBD50446DFF8B5
:100D0000BCE082890680DEF814202A4D42F00202FF
:100D1000CEF814206A694FF02B0E42F002026A618D
:100D2000A0F80CE022892248D507FBD50446214DC6
:100D300082892A69DFF884E042F002022A6102888F
:100D400092B242F400620280DEF8102042F0020209
:100D5000CEF810206A6942F002026A617D78294467
:100D6000818122891249D007FBD508462B448A8904
:100D70008B8103890E4AD907FBD511460F4C938905
:100D8000168063690B4843F00203636143692C24B6
:100D900043F00203436194810B89054ADB07FBD5CD
:100DA000044993890B6943F002030B61BDE8F081AC
:100DB000003001400008014028050020000C0140DF
:100DC0002DE9F04F834644488A46B0F9001085B0BB
:100DD000594554DD1D46B0F9023053454FDD1BF136
:100DE000040F4CDB1AF1070F49DB3C4CCDF804B083
:100DF000A046AB4602EB8202394F03924FF0000946
:100E0000B9F1050F66D0374B039A134413F8095014
:100E1000002615F0010C35D0019B06EB0A0109EB09
:100E20000300C9B2C0B20B460246FFF71DFF2E4AAF
:100E30001FFA8BF1136943F0020313617B6943F0DE
:100E400002037B612288238892B29BB243F4006341
:100E50002380A1812389D907FCD5B8F80C303B69E0
:100E600043F002033B61A8F800200136082E4FEA48
:100E70005505CED109F10109B9F1060FC0D105B070
:100E8000BDE8F08FCDF808C0BBF1000FEDD0019B9D
:100E900006EB0A0109EB0300C0B2C9B202460B46D9
:100EA000FFF7E2FE104ADDF808C0136943F00203C1
:100EB00013617B6943F002037B612288238892B22D
:100EC0009BB243F400632380A4F80CC02389DB07A2
:100ED000FCD5C2E700259BE78800002000300140D8
:100EE00000080140A48E0008000C01403C4A2DE996
:100EF000F047154640F2BA7790F800E0394C3A498D
:100F000082B0461C0EF1FF3E5FFA8EFEBEF1FF0F6F
:100F10005DD06069337840F00200606148699BB23F
:100F200040F00200486193811389D807FCD5AB8952
:100F30000B6906F1020943F002030B61737803F0B9
:100F40007F0000F1FF3823F07F035FFA83FC5FFA34
:100F500088F8F8B1701C09EB0806D4F810A010F856
:100F6000013F4AF0020AC4F810A0D1F814A09BB2C5
:100F70004AF0020AC1F814A093811389DB07FCD55B
:100F8000AB890B69B04243F002030B61E5D108F174
:100F90000108C144BCF1000F1CD099F8000009F110
:100FA0000106FF2818D00028ACD00197019B2BB177
:100FB000019B013B0193019B002BF9D10138F4D136
:100FC0000EF1FF3E5FFA8EFEBEF1FF0FA1D102B01F
:100FD000BDE8F0874E4695E74FF4FA70E5E700BFAD
:100FE00000300140000C0140000801402DE9F041B3
:100FF000DFF8DCE01546BEF80060BDF8187032B2CC
:1010000082425CDD1C46BEF802300FFA83FE8E453C
:1010100055DD00EB050C9445C8BF351A01EB040201
:10102000C8BF2DB27245C8BF5B1AC0B2C9B2C8BF33
:101030001CB2421E4B1E2A442344D2B2DBB2FFF73D
:1010400013FE002C3BDD1F4BA4461E461E481F49C5
:101050004FEA172EFFB2002D2ADDA846026942F0A2
:10106000020202614A6942F002024A61A3F80CE0FE
:101070001A89D407FCD5B2890A6942F002020A61D2
:10108000026942F0020202614A6942F002024A61C8
:10109000B7811A89D207FCD5B2890C6908F1FF32F1
:1010A00092B244F002040FFA82F80C61002AD5D102
:1010B0000CF1FF3292B20FFA82FC002ACBD1BDE8CC
:1010C000F08100BF00300140000C014000080140E9
:1010D00088000020F0B5074600243D4D83B020462F
:1010E000224601216C702C7000F016FA0120024695
:1010F000214600F011FA052007F046FD2146224660
:10110000012000F009FA052007F03EFD012002460B
:10111000214600F001FA052007F036FD2D48FFF7C3
:10112000E5FE012F1BD02C48FFF7E0FE2B48FFF710
:10113000DDFE032F1DD040F2FF7E294E0024B6F9BC
:101140000020B6F90230204600942146A6F804E0BB
:101150002F736C60AC60FFF749FF03B0F0BD21480E
:10116000FFF7C4FE02231D486F702B70FFF7BEFE11
:10117000E1E71D4A1D4C114663691D4843F0020317
:1011800063614369362443F00203436194810B8910
:10119000154AD807FBD51146154B90891869134C91
:1011A00040F0020018612069C02640F00200206172
:1011B000586940F00200586196810B890A4ADB07A2
:1011C000FBD50B4993890B6943F002030B61B2E72E
:1011D0002805002008940008809400085494000812
:1011E000880000204494000800300140000C0140B9
:1011F000000801402DE9F04F0A2887B01DD00D28C6
:101200001BD01B2819D06B4C6B4E6268A36802EB95
:10121000420203EB8303550059000246B6F904303D
:1012200028B209B2FFF7CCFD63680133142B00F23A
:10123000A880636007B0BDE8F08F5E4900228B682C
:101240004A6001330F2B8B6040F2AA805A4B8A60B0
:10125000B3F804B00493594C02EB8202A04652004A
:1012600093B2574A0093574F9BB2029205934FF0A7
:10127000000A029B13F8012B0293002ADAD0049B88
:101280004D48B3F900100FFA8AF3994248DDB0F9DE
:101290000210BDF91430994242DD02EB8203039340
:1012A0004FF00009B9F1050F00F08180464B039A19
:1012B000134413F80950002615F0010C3AD0009B96
:1012C00009EB0A00F118C0B2C9B202460B46FFF79B
:1012D000CBFC3E4A136943F0020313617B6943F080
:1012E00002037B612288238892B29BB243F400639D
:1012F0002380A4F80CB02389D907FCD5B8F80C30AA
:101300003B6943F002033B61A8F800200136082E38
:101310004FEA5505D0D109F10109B9F1060FC1D144
:101320000AF1060A1FFA8AFABAF17E0FA1D107B0B4
:10133000BDE8F08FCDF804C0BBF1000FE6D0009BF4
:1013400009EB0A00F118C0B2C9B202460B46FFF71A
:101350008BFC1E4ADDF804C0136943F002031361DD
:101360007B6943F002037B612288238892B29BB29F
:1013700043F400632380A4F80CC02389DB07FCD569
:10138000BCE7A368142503EB8303590009B2782056
:101390002A221F23656007B0BDE8F04FFFF710BD9C
:1013A000054A11460492B1F804B09AB253E70025F9
:1013B00081E700BF280500208800002000300140A0
:1013C0009096000800080140A48E0008000C01401F
:1013D00008B500F0C7F807F029FB00F0A9F9234889
:1013E00000F0C0FC00222248224902F043FF224BB9
:1013F0001A78012A31D0022A25D0032A15D0042ACE
:1014000003D01E4803F088FFFEE71C481C49012258
:1014100002F066FF0028F4D107F0A2FA0028F0D10C
:1014200003201849FEF7E6FEEBE7144816490122AF
:1014300002F056FF0028E4D14FF4806006F01CFF54
:101440000028DED1ECE70D481049012202F048FFE8
:101450000028D6D14FF40070F0E708480C4902F09C
:101460003FFF0028CDD14FF48070E7E704970008D4
:101470004C050020A08E0008A80900208407002049
:101480002897000830970008209700081897000850
:1014900010970008012A10B422D03AB1022A27D0AE
:1014A000032A2DD0042A14D0194B06E0194A184BF0
:1014B00052F8211004221980DA70800200F1804075
:1014C000032200F5843012495DF8044B9A70FFF74F
:1014D000E5B9104C0E4B54F82110DA701980ECE786
:1014E0000C4A0B4B52F8211010221980DA70E4E7F5
:1014F000084A074B52F8211028221980DA70DCE7DD
:10150000044A034B52F8211048221980DA70D4E7BC
:10151000D809002090000020800200F18040084B94
:1015200000F584302AB9426953F8213013434361EE
:101530007047C26853F821301343C360704700BF3F
:101540009000002000F58010054A42308002836838
:1015500052F821000340C01AB0FA80F040097047E9
:1015600090000020F0B5012087B0014600F090FC0B
:101570006748012100F0A4FC012141F21D0000F0A8
:1015800093FC4FF4407007F06DFA01200221032212
:101590000023FEF761FE0222052003210023FEF74F
:1015A0005BFE0425082369465A48ADF8003003263F
:1015B0008DF803501827FFF771F969465548002444
:1015C000ADF800508DF802608DF80370FFF766F9F2
:1015D0004FF4E1320DEB05010C234F480192ADF8B9
:1015E0000E30ADF80840ADF80A40ADF80C40ADF84B
:1015F000104000F077FC4848012100F0D1FC0DEBD1
:1016000005014FF4204345488DF807708DF80660BA
:10161000ADF80430FFF742F9A0230DEB05013D487A
:10162000ADF80430FFF73AF902200D210122FFF74F
:1016300031FF204629460122FFF72CFF01202146D9
:101640000246FFF727FF012001460246FFF722FF6F
:10165000012120460A46FFF71DFF204629460122A8
:10166000FFF75AFF012120460A46FFF755FF0220E7
:101670000D210122FFF750FF294B4FF400621B7828
:101680000DEB0501B34214BF4FF0100E4FF0080EE2
:10169000022301254FF482774FF400762148ADF8FC
:1016A0000820ADF80A30ADF810E0ADF80440ADF810
:1016B0001240ADF81440ADF80670ADF80E60ADF80C
:1016C0000C5007F011FA01A91748ADF80840ADF821
:1016D0000A40ADF80C40ADF8104007F005FA21467D
:1016E000114807F039FA21460E4807F035FA294625
:1016F0000D4807F019FA29460A4807F015FA284656
:10170000FFF7E8FC4FF6FF72084B1A8007B0F0BDF8
:10171000054002000008014000440040000C014068
:10172000A809002000380040003001408C00002053
:10173000F0B5234B87B01B780024032B14BF4FF068
:10174000100E4FF0080E4FF400620223012501A98C
:101750004FF482774FF400761A48ADF810E0ADF8F8
:101760000820ADF80A30ADF80440ADF81240ADF8ED
:101770001440ADF80670ADF80E60ADF80C5007F0EF
:10178000B3F901A91048ADF80840ADF80A40ADF82A
:101790000C40ADF8104007F0A7F921460A4807F0C1
:1017A000DBF92146074807F0D7F92946064807F034
:1017B000BBF92946034807F0B7F907B0F0BD00BFF1
:1017C000A80900200038004000300140092B2DE915
:1017D000F84317461C4602F1FF36054614D8002E82
:1017E000D8BF012004DD324607F0A0FA3846354460
:1017F0001C4BA3FB0423DB0803EB8303A4EB430391
:1018000030332B70BDE8F883164BA2F10209A3FB1D
:1018100004284FEAD808B8F1090F14D8B9F1000F1D
:101820001CDD4A4607F082FA3846A9440D4B354480
:10183000A3FB0823DB0803EB8303A8EB430330334C
:1018400089F80030D4E7A3FB08234A46DB08FFF7FA
:10185000BDFF05EB0009461C0230E7E78146012683
:101860000220E3E7CDCCCCCC2DE9F843002B144685
:10187000054639DB092B1E4618DC541E002CD8BF48
:10188000012007DD012CB8BF0124224607F04EFAE3
:101890002544601C4C49A1FB0631C90801EB8101BC
:1018A000A6EB410130312970BDE8F883464BA3FB1C
:1018B0000627FF08092F29D8A4F10208B8F1000F64
:1018C00072DD424607F032FA204605EB0802611E3F
:1018D0003D4B0D44A3FB0743DB0803EB8303A7EB5E
:1018E000430330331370D5E75E42092E2FDC941E7C
:1018F000002C5DDD012CB8BF0124224607F016FA4A
:101900002544A01C2D2305F8013BC3E7A3FB0728B2
:101910004FEAD808B8F1090FA4F1030928D9A3FBAD
:1019200008234A46DB08FFF79FFF05EB000E421C29
:10193000811C0330244B2A44A3FB0843DB0803EB40
:101940008303A8EB430330338EF80030C0E71E4B0F
:10195000A3FB0627FF08092F16DDA3FB0723DB08DF
:10196000A21E5B42FFF780FF2A18411C0230AFE73E
:10197000B9F1000F1EDD4A4607F0D8F905EB090E54
:10198000A21E611E2046D5E7A4F10308B8F1000F9E
:1019900015DD424607F0CAF9204605EB0802611E34
:1019A0002D2302F8013B93E70246012102208FE735
:1019B0000220A7E78646022103200122BAE7024659
:1019C00002210320ECE700BFCDCCCCCC2DE9F043C5
:1019D00083B00A9C16465FEA1419054698461FD143
:1019E000571E002FD8BF012004DD3A4607F09EF9AC
:1019F00030463D4404F00F04092C0CD9B8F1000F17
:101A000004D157342C7003B0BDE8F08337342C7008
:101A100003B0BDE8F08330342C7003B0BDE8F08330
:101A2000971E220A16D1002F20DD3A4607F07EF9D4
:101A30002F443046013E09F00F03092B06D9B8F1B7
:101A4000000F0FD157333B703544D3E730333B7031
:101A50003544CFE700923A46FFF7B8FF2F18461CEF
:101A60000230E8E737333B703544C3E707460126C9
:101A70000220E0E72DE9F04F0F468BB01446984660
:101A8000064608B100230370DFF8D49200252378BE
:101A90005BB1BD4280F0B580252B0ED03370013490
:101AA000237801350136002BF3D1AF4240F2A980F3
:101AB000284633700BB0BDE8F08F6178252937D008
:101AC00030293AD00B4601342021A3F13002092AF3
:101AD0004FF000020CD802EB820203EB420214F832
:101AE000013F303AA3F13000092802F0FF02F2D999
:101AF00094462A44974238BF7A1BA3F1580338BF53
:101B00005FFA82FC202B00F28380DFE803F06E8115
:101B1000818181818181818181665C818181815C1A
:101B20008181818181818181814B8128818119001D
:101B30003170023401350136A9E7A3780234C4E7D5
:101B4000D8F800306246009330460023FFF73EFF8E
:101B5000024608F1040801341644054497E7D8F812
:101B600000B0E246BBF1090F08F104080CF1FF33A5
:101B700053D8002B7DDD1A463046CDF810C00393B4
:101B800007F0D4F8DDF810C0039B6246604633448A
:101B9000A9FB0BE1C90801EB8101ABEB410130313D
:101BA0001970D8E7D8F8001008F104080A78002A5C
:101BB0005DD0334603F8012B11F8012F981B002A42
:101BC000F8D10246C7E76246D8F800303046FFF742
:101BD0004BFE08F104080246BDE7D8F800300122A8
:101BE000104608F104083370B5E7D8F800306246B3
:101BF000009330460123FFF7E9FE08F1040802468E
:101C0000A9E70023681E06F8013C0BB0BDE8F08F81
:101C10004FF0FF300BB0BDE8F08FA9FB0B02D208EC
:101C2000092A0492ACF1020C27D8BCF1000F19DD8F
:101C3000624630460593CDF80CC007F077F852465F
:101C4000DDF80CC0059BB44404983344A9FB00E1C3
:101C5000C90801EB8101A0EB4101303150468CF8FD
:101C6000001095E702229246B4460123ECE71046A5
:101C700071E70122104633468AE7A9FB0202D20827
:101C8000AAF10300092A079203901CD8002843DD1B
:101C9000039A30460693CDF814C007F047F8524631
:101CA0000399DDF814C03144069B03910799B444AD
:101CB000A9FB01E0C00800EB8000A1EB4000039904
:101CC00030300870C0E7A9FB0220C208092AAAF137
:101CD0000400059206902FD8002824DD069A30468D
:101CE0000993CDF820C007F021F8069852463044F9
:101CF0008646DDF820C0099B0598A9FB0010C008A6
:101D000000EB80010598A0EB41000399303031448D
:101D100003918EF80000C9E703229246039602233E
:101D20004FF0010CC2E7042201219246B64603237C
:101D30004FF0020C0391DFE71346A9FB0323304663
:101D4000069ADB08FFF742FD431C00F1040A0393E7
:101D5000524606EB000E00F1020CC31CCCE700BF9C
:101D6000CDCCCCCC0FB4F0B5204DABB001AC0FCD89
:101D70000FC40FCD0FC430AE1D4F56F8042B2B6887
:101D80003D6823600AA8334680210096AE68FFF7BD
:101D900071FE7F280FDD3B689DF80400DD6848B1C7
:101DA00001AC02E014F8010F20B1294606F0E2FE72
:101DB0000130F7D1FEE79DF82800054680B10AAC56
:101DC000002503E014F8010F013548B1314606F053
:101DD000D1FE431CF6D12BB0BDE8F04004B07047F3
:101DE00028462BB0BDE8F04004B070473897000893
:101DF000D8000020224A10B4536803F00C03042BCF
:101E000006D0082B26D01BB11E4A1346026001E003
:101E10001C4B03601A4A1C495468C4F303140C5D3C
:101E2000E34043605468C4F302240C5D23FA04F4D5
:101E300084605468C4F3C2240C5DE340C3605268FC
:101E40005DF8044BC2F381320A44127CB3FBF2F317
:101E50000361704753685168C3F38343C90303F1B7
:101E6000020307D55268920304D4064A02FB03F327
:101E70000360CFE7054A02FB03F30360CAE700BF34
:101E80000010024000127A000805002000093D0001
:101E9000044A536919B923EA000050617047184396
:101EA0005061704700100240044A936919B923EA4F
:101EB0000000906170471843906170470010024025
:101EC000044AD36919B923EA0000D0617047184366
:101ED000D061704700100240014B5861704700BF4D
:101EE0000004014070B504460D46038ACA889BB2BF
:101EF00023F440531343038282898B88088992B26A
:101F00004989034322F4B0520B4322F00C021343DD
:101F10009BB2A381A38AAA899BB223F4407386B0A3
:101F20001343A38201A8FFF765FF1B48039B049995
:101F3000A289844208BF0B4612B2002A2A6803EB2A
:101F40008303B4BF5200920003EB8303B3FBF2F3AD
:101F5000124EA589A6FB03202DB240096422002D54
:101F600000FB12334FEA00100ADB1A013232A6FBE3
:101F70000223C3F3431303439BB2238106B070BD16
:101F8000D9003231A6FB0131C1F3421242EA00030B
:101F90009BB2238106B070BD003801401F85EB5114
:101FA000838929B923F400531B041B0C83817047D8
:101FB0009BB243F400538381704700BF704700BF5A
:101FC00010B4064A064B145C59701C700122184666
:101FD0005DF8044BDA7006F04FBD00BF1C05002011
:101FE000DC090020704700BFFEE700BFFEE700BF2E
:101FF000FEE700BFFEE700BF704700BF704700BFAD
:10200000704700BF704700BF704700BF4FF480208B
:10201000FFF762BF70B51B4D00231B4E2B701124C0
:1020200001200D210022FFF777FA112C4FF000025A
:102030004FF001004FF00F0116D1FFF76DFA0120AC
:102040000E21FFF77FFA2870012002460D21FFF7CD
:1020500063FA00BF00BF00BF00BF00BF00BF013C6C
:1020600014F0FF04DCD170BDFFF756FA338801206D
:1020700083400E213380FFF765FA338818433080A0
:10208000E2E700BFD4090020D009002008B50120F4
:102090000B210022FFF7FEF901200D210022FFF79E
:1020A000F9F901200C210222FFF7F4F901200F2198
:1020B0000022FFF7EFF9BDE8084001200E210022C1
:1020C000FFF7E8B9012010B502460B21FFF7E2F94E
:1020D000012002460D21FFF7DDF9012002460D2106
:1020E000FFF71AFA012002460B21FFF715FA3220FA
:1020F00006F04AFD01200B210022FFF70DFA012016
:102100000B210022FFF7C6F901200D210022FFF765
:10211000C1F901200C210222FFF7BCF901200F2197
:102120000022FFF7B7F90C4C01200E210022FFF727
:10213000B1F94FF4FA73236001E023682BB1012059
:102140000B21FFF7FFF90028F7D001200B21BDE894
:102150001040FFF7F7B900BF7C070020012010B541
:1021600002460D21FFF796F9012002460F21FFF7E5
:1021700091F9012002460D21FFF7CEF91E4C0120F6
:102180000D210022FFF7C8F94FF4FA73236001E034
:1021900023682BB101200C21FFF7D4F90028F7D0D8
:1021A00001200C21FFF7CEF928B1BDE81040012035
:1021B0000C21FFF7C7B902460B210120FFF7ACF94C
:1021C000642006F0E1FC012002460B21FFF7A4F990
:1021D0004FF4FA73236002E02368002BE5D001205E
:1021E0000C21FFF7AFF90028F6D001200C21BDE843
:1021F0001040FFF7A7B900BF7C070020F8B50746DD
:102200001C4D00231C4E2B70102401200D21002298
:10221000FFF782F9E3B2102B4FF000024FF00100FC
:102220004FF00F0115D1FFF777F901200E21FFF7CD
:1022300089F92870012002460D21FFF76DF900BFD2
:1022400000BF00BF00BF00BF00BF14F1FF34DCD2ED
:10225000F8BD47FA04F20240FFF75EF93388012027
:1022600083400E213380FFF76DF9338818433080A7
:10227000E0E700BFD4090020D00900202DE9F0419B
:102280000546104614460E469846BDF81870FFF7EE
:10229000B5FF6DB966B9230612D43846FFF7AEFF15
:1022A000094CFFF7B7FE2378002BFAD1BDE8F08187
:1022B0002846FFF7A3FF3046FFF7A0FF2306ECD523
:1022C0004046FFF79BFFE8E7D409002070B50546BC
:1022D000104614460E46FFF791FFC5B9BEB914F07B
:1022E000800F0E4C09D10E4DFFF794FE2378002B82
:1022F000FAD12A880B4B1A8070BDFFF78BFE23782A
:10230000002BFAD1064D084B2A881A80ECE72846A4
:10231000FFF774FF3046FFF771FFE0E7D4090020B4
:10232000D0090020D6090020D20900200D4A70B43F
:1023300015464FF0FF040C4E0144736943F010033F
:10234000736194811389DB07FCD5AB8900F8013BED
:102350008842F6D1044A70BC136943F0100313613C
:10236000704700BF0030014000080140F0B5394C13
:1023700083B02246074638488DF8041043698DB271
:1023800043F010034361A5811389324CD807FBD574
:10239000314DA3892B69FD2943F010032B6155D0E2
:1023A000268823882D4A6FEA83436FEA93439BB2C2
:1023B000238011462A48576003F0E6F820460221A0
:1023C000012206F0BFFB6B69254843F010036B61E7
:1023D0000121B6B203F0F8F8214803F001F9002812
:1023E000FAD11C4F02460221384606F0ABFB1C48CE
:1023F00003F036F84FF0FF053A463C46164B01A96C
:10240000D3F810E00DF107004EF0100EC3F810E005
:102410003E805E6946F010065E6195811389DB0798
:10242000FCD5A38901F8013B8142F6D10A4A136920
:1024300043F0100313619DF8060000F01F00A0F1A7
:102440000500B0FA80F0400903B0F0BD012003B0F0
:10245000F0BD00BF0030014000080140E00900204D
:1024600030000240F0B5030683B004460D4600F18B
:10247000C4800C2C00F0B1807048714B01461A6981
:10248000FF2642F010021A615A6942F010025A61A6
:1024900086810B89694ADF07FBD51046684B918915
:1024A0001969FF2641F010011961596941F01001C5
:1024B0005961596941F010015961968103895F4959
:1024C000DE07FBD55E4B4FF0FF0718460A460E4667
:1024D00089891969DFF86CE141F0100119614369DC
:1024E00043F01003436197811389D907FCD5B38961
:1024F0000169DBB241F01001FF2B016121D064239F
:1025000000BF00BF013BFBD1BEF1010EE7D14C4B38
:102510004A481A69FF2442F010021A6102465969BA
:1025200041F010015961848113894449DB07FBD5CF
:10253000434A8B891369FF2043F01003136103B0F2
:10254000F0BD44F04003280E290C2A0A8DF80450EF
:102550008DF800308DF801008DF802108DF8032001
:10256000002C65D19523354A6846164634498DF8C6
:1025700005304B690DF1060543F010034B6110F86F
:10258000013B938113892D49DF07FBD5A842B3890D
:10259000F5D12B4B0C2C1A6942F010021A6135D080
:1025A000264A4FF0FF06144625480A25436943F0A2
:1025B0001003436196811389DF07FCD5A389016964
:1025C0009BB241F010010161190603D5013D15F0E0
:1025D000FF05EBD1D8B203B0F0BD2B0A4C20290E79
:1025E0002A0C8DF803308DF804508DF800008DF81A
:1025F00001108DF802200123B5E737200021FFF7F5
:1026000031FF0128E7D804F07F0432E708465A6911
:10261000FF2442F010025A618C810389074ADB07CC
:10262000FBD5074993890B6943F010030B61B7E7AA
:10263000082C0CBF8723012395E700BF0030014021
:102640000008014020A1070010B9024B187870471C
:102650000120704724050020F0B504466C4BDFF8DC
:10266000D0C1002283B04FF0100E4FF400778026C7
:102670004FF4405519466748C3F800C0C3F808E056
:10268000DF605E615D621A619A61DA611A629A6264
:1026900002F07AFF1CB10324204603B0F0BD5E4B6C
:1026A00000BF00BF013BFBD15C4A4FF0FF0C9646D8
:1026B0005B4E0A25736943F010037361A2F80CC0E6
:1026C0001389D907FCD5BEF80C103369681E43F096
:1026D000100310F0FF05CCB23361514FEAD1284608
:1026E00029468DF80440FFF7BDFE012804461FD09F
:1026F0000124002549484B4A01464B4E484B357052
:1027000014701A69FF2542F010021A615A6942F0EA
:1027100010025A6185810B89404ADB07FBD52046B0
:102720003F4993890B6943F010030B6103B0F0BD7F
:1027300008204FF4D571FFF795FE012824D02946D3
:10274000A920FFF78FFE012888BF2546374E9CBF82
:10275000A924022520460021FFF784FE074640B148
:102760004FF47A7300BF00BF013BFBD1013EF1D1B2
:10277000BEE710204FF40071FFF774FE00280446F6
:102780001CBF3D460124B5E7244B4FF0FF001C461B
:102790007A6901A942F010027A6198811A89D207F8
:1027A000FCD5A28901F8012B02AA9142F5D11C4A5D
:1027B000136943F0100313619DF80630012B97D184
:1027C0009DF80730AA2B93D1184C4FF08041A920D7
:1027D000FFF748FE014640B14FF47A7300BF00BFD7
:1027E000013BFBD1013CF0D182E73A20FFF73AFEF2
:1027F000044600287FF47CAF01A80421FFF796FD72
:102800009DF8043013F0400F14BF0C25042571E728
:10281000E00900203000024040420F00003001403B
:1028200000080140240500203C050020A08601008E
:102830000C3001402DE9F04383B0002863D1994664
:102840003B4B1B78DC075ED43A4B0D461B781807D0
:1028500058BF5202B9F1010F8CBF12261126114642
:102860003046FFF7FFFDF8B119F1000918BF4FF02E
:1028700001093148314B01461A69FF2442F0100228
:102880001A615A6942F010025A6184810A892A4BFE
:10289000D207FBD54846294A9B89136943F01003A8
:1028A000136103B0BDE8F083234C244FA0464FF0E2
:1028B000FF00234B7A6942F010027A61A0812289DD
:1028C000D107FCD5B8F80C203969D2B241F010011B
:1028D000FF2A396107D1642200BF00BF013AFBD152
:1028E000013BE7D103E0FE2A8DF8042011D019F155
:1028F000000918BF4FF00109122EBAD100210C2097
:10290000FFF7B0FDB5E74FF00309484603B0BDE857
:10291000F08328464FF40071FFF708FD01A802215B
:10292000FFF704FDB9F1010905F50075BFD1E3E733
:10293000240500203C050020003001400008014033
:10294000A0860100002837D12DE9F0411F46634BD6
:102950001B78DB0732D4624B14461B780D461E07EA
:1029600058BF5402012F77D013F0060F03D09720E1
:102970003946FFF777FD21461920FFF773FD00B3B5
:10298000381C18BF0120574C574B21461A69FF25A8
:1029900042F010021A615A6942F010025A61A58190
:1029A0000B89504ADB07FBD54F4993890B6943F0EC
:1029B00010030B61BDE8F081032070470320BDE8E0
:1029C000F081484C484EA0464FF0FF0E47487369CF
:1029D00043F010037361A4F80CE02289D307FCD5FF
:1029E000B8F80C203169D2B241F01001FF2A3161F0
:1029F00027D0642200BF00BF013AFBD10138E6D1E5
:102A000038494FF0FF0E0E46384D374C636943F09E
:102A100010036361A1F80CE00B89324AD807FBD59B
:102A2000B3892069DBB240F01000FF2B20612E48F3
:102A300019D0642200BF00BF013AFBD1013DE5D1AE
:102A40000FE02846FC21FFF791FC0028D8D0013F79
:102A500005F50075B8D1D3E721461820FFF702FD30
:102A6000B0B101208FE74369FD2143F010034361BA
:102A7000134691811A891B49D207FBD51A4A8B89C3
:102A80001369381C43F0100318BF012013617AE763
:102A9000144A4FF0FF071646144813494B6943F098
:102AA00010034B6197811389DC07FCD5B3890C694E
:102AB000DBB244F01004FF2B0C6107D0642300BF8D
:102AC00000BF013BFBD10138E8D1CAE72846FE210F
:102AD000FFF74CFCB0FA80F0400954E724050020D1
:102AE0003C050020003001400008014020A1070003
:102AF00028BB764B187810F0010020D1F0B50129E1
:102B000087B070D020D303291BD00420704C714BA8
:102B100021461A69FF2542F010021A615A6942F0F3
:102B200010025A61A5810B89694ADB07FBD5694907
:102B300093890B6943F010030B6107B0F0BD0320CC
:102B4000704780231360E1E76148624B0246596990
:102B5000FF2441F010015961596941F01001596198
:102B6000848113895A49DB07FBD55A4B4FF0FF0686
:102B700018460A460C4689891969574D41F01001DB
:102B80001961436943F01003436196811389DF079C
:102B9000FCD5A3890169DBB241F01001FF2B016173
:102BA0001FD0642300BF00BF013BFBD1013DE8D132
:102BB000484B47481A69FF2442F010021A61024646
:102BC000596941F010015961848113894049D8073E
:102BD000FBD5404A8B891369012043F01003136130
:102BE00094E7002092E70D46014609201446FFF7BE
:102BF00039FC08B1284689E7354A4FF0FF071546EA
:102C000000F18040354E00F58430436943F01003F5
:102C1000436197811389D907FCD5AB890169DBB280
:102C200041F01001FF2B016107D1642300BF00BFF9
:102C3000013BFBD1013EE8D103E0FE2B8DF80430CF
:102C400001D0012062E702A81021FFF76FFB01A865
:102C50000221FFF76BFB9DF808309B09012B23D065
:102C60009DF80D309DF8121003F00F039DF8110030
:102C70009DF80F2003EBD1139DF810509DF80E1016
:102C800000F003000233920003EB400302EB9512C5
:102C900001F00301DBB202EB8122093B013202FAAF
:102CA00003F32360002031E79DF80F109DF81120F9
:102CB00001F03F019DF810300904013102EB0323BC
:102CC0000B449B022360002020E700BF2405002066
:102CD000003001400008014020A10700A08601004B
:102CE000F8B5C46A00F130070546224639464078F7
:102CF0000123FFF727FEB0B92A6AAB69A21A9A42EC
:102D000028710ED2EE78012E01D80AE0AB691C447E
:102D1000013E2246687839460123FFF713FE012E53
:102D2000F4D10020F8BD0120F8BD00BF2DE9F0412D
:102D3000C56A04468D420E4632D0037900F1300850
:102D400073B93246414660780123FFF773FD0028CE
:102D50001ABF4FF0FF3601200020E662BDE8F08187
:102D6000414640782A460123FFF7ECFDA8B9226AC4
:102D7000A369AA1A9A422071E3D2E778012F01D8F9
:102D8000DFE7A3691D44013F2A46607841460123DD
:102D9000FFF7D8FD012FF4D1D3E70120BDE8F08182
:102DA0000020BDE8F08100BF2DE9F84F037904460B
:102DB00063B92378032B2CD0002160780A46FFF7F3
:102DC00097FE003018BF0120BDE8F88FC56A00F1FA
:102DD00030072A46394640780123FFF7B3FDA8B9EA
:102DE000226AA369AA1A9A422071E2D2E678012ED9
:102DF00001D8DEE7A3691D44013E2A4660783946C2
:102E00000123FFF79FFD012EF4D1D2E70120BDE899
:102E1000F88F6579012DCFD104F1300738460021B4
:102E20004FF4007205F082FF2669E068E3694FEA1B
:102E300016694FEA104C4FEA106EC0F3072884F869
:102E40001C0255205A1CC6F3072B2B464FEA164A84
:102E5000394684F8186252256126412784F81B926E
:102E600084F82E024FF07209AA2084F82F0284F809
:102E700019B284F81AA284F81D8284F81EC284F85C
:102E80001FE2E26284F8305084F8315084F83260F6
:102E900084F8176284F8337084F8167284F81492F8
:102EA00084F815926078FFF74DFD0023637183E786
:102EB0002DE9F84F03780446022B0D46174600F023
:102EC000A880032B73D0012B02D00220BDE8F88F1D
:102ED000066A01EB5108D0F82CB006EB5829D94509
:102EE00000F04381027900F13006002A40F0FB80B7
:102EF000314660784A460123FFF79CFC002840F0E9
:102F00001481CB46266AC4F82C9008F1010A15F00A
:102F10000105C8F30808A04400F00D8198F830209E
:102F2000FBB202F00F0206EB5A2642EA03134E45AB
:102F30004FF0010288F83030227100F0188104F15E
:102F40003008414660784A460123FFF7FBFC002821
:102F500040F0EE80226AA369C2EB09029A42207116
:102F600012D294F80390B9F1010F01D80CE0A369D3
:102F70009B4409F1FF395A46607841460123FFF727
:102F8000E1FCB9F1010FF2D14146607832460123EC
:102F9000FFF750FC002840F0C880E662CAF3080A38
:102FA000002D00F0D380C7F30717A244D6E0036AD0
:102FB000D0F82CA003EBD118D0450FD0037900F145
:102FC0003006002B6CD13146607842460123FFF772
:102FD00031FC002840F0A980C4F82C80AD0005F435
:102FE000FE7505F130022244D37825441B0603F018
:102FF00070431F43C7F3072E3E0C390E012385F89B
:10300000307082F801E09670D17023710020BDE825
:10301000F88F036AD0F82CA003EB1128D0450DD00F
:10302000037900F13006C3B9314660784246012386
:10303000FFF700FC002878D1C4F82C806D0005F45F
:10304000FF756119C7F30722012381F8307081F8F9
:10305000312023710020BDE8F88F31464078524678
:103060000123FFF76FFC002862D1226AA369C2EB3B
:103070000A029A422071D7D294F80390B9F1010F55
:1030800001D8D1E7A3699A4409F1FF395246607823
:1030900031460123FFF756FCB9F1010FF2D1C3E726
:1030A0003146407852460123FFF74CFC00283FD1BF
:1030B000226AA369C2EB0A029A42207183D294F871
:1030C0000390B9F1010F01D87DE7A3699A4409F192
:1030D000FF395246607831460123FFF733FCB9F1DE
:1030E000010FF2D16FE7314640785A46FFF72AFCCC
:1030F000F0B9226AA369C2EB0B029A422071BFF4B5
:10310000F7AE94F803A0BAF1010F01D8F0E6A36975
:103110009B440AF1FF3A5A46607831460123FFF793
:1031200011FCBAF1010FF2D1E2E64FF0FF33E36296
:103130000120BDE8F88F06EB5A2601234E4588F89A
:10314000307023717FF4FBAECAF3080AA2449AF8E8
:103150003030C7F3032723F00F031F4301238AF8FE
:10316000307023710020BDE8F88FCB46CDE6CAF35E
:10317000080A18E72DE9F84F03780446022B0D469C
:1031800079D0032B4BD0012B02D00120BDE8F88F62
:10319000026A01EB5109D0F82C8002EB592AC24592
:1031A00000F0F780027900F13006002A40F0CA8072
:1031B0003146607852460123FFF73CFB002840F07F
:1031C000E3805746226AC4F82CA0C9F3080309F12A
:1031D000010902EB592B2344D34593F8308010D0DA
:1031E000237904F13006002B40F0D5803146607819
:1031F0005A460123FFF71EFB002840F0C580C4F8A3
:103200002CB0C9F308094C4494F8303048EA032044
:10321000EB074CBF0009C0F30B00BDE8F88F076A4D
:10322000D0F82C9007EBD1174F450ED0037900F161
:103230003006002B63D1314660783A460123FFF710
:10324000F9FA002840F0A080E762AD0005F4FE75B1
:1032500005F130032344DA7899785878254412062A
:1032600095F8303042EA014242EA0020184320F04B
:103270007040BDE8F88F076AD0F82C9007EB112753
:103280004F450CD0037900F13006ABB93146607878
:103290003A460123FFF7CEFA002875D1E7626D00A8
:1032A00005F4FF7563191D4693F8303095F8310029
:1032B00043EA0020BDE8F88F314640784A460123B2
:1032C000FFF740FB00285BD1226AA369C2EB090229
:1032D0009A422071DAD294F80380B8F1010F01D834
:1032E000D4E7A369994408F1FF384A46607831462B
:1032F0000123FFF727FBB8F1010FF2D1C6E73146F2
:1033000040784A460123FFF71DFB002838D1226A86
:10331000A369C2EB09029A4220718CD294F803800F
:10332000B8F1010F01D886E7A369994408F1FF3885
:103330004A46607831460123FFF704FBB8F1010FDC
:10334000F2D178E7314640784246FFF7FBFAB8B948
:10335000226AA369C2EB08029A422071BFF428AF27
:10336000E778012F01D823E7A3699844013F42463B
:10337000607831460123FFF7E5FA012FF4D117E712
:103380004FF0FF30BDE8F88F4FF0FF30E062BDE84E
:10339000F88F574619E73146607852460123FFF708
:1033A000D1FA0028ECD1226AA369C2EB0A029A4240
:1033B0002071BFF41BAF94F803A0BAF1010F01D83C
:1033C00014E7A3691F440AF1FF3A3A466078314690
:1033D0000123FFF7B7FABAF1010FF2D106E700BFF8
:1033E00070B50D46816804460129C58003D0006888
:1033F0004369994201D3022070BDC1B90278032A02
:1034000011D003899D42F6D2436AE160002BF2D0CD
:1034100005F00F0200EB421003EB15153030606130
:103420002561002070BD426A002AEAD011468678E4
:103430003601B54217D3AD1B0FE0FFF79BFE431CCF
:103440000146A5EB060217D00128D4D920684369AC
:103450008B42D0D9AE4206D815460129CBD9994224
:10346000EBD3022070BD023B8A1E9A4206D28678B8
:10347000836A06FB0233C8E7012070BDE160BAE74A
:103480002DE9F84F0B788B462F2B064671D05C2B1D
:103490006FD00024B4609BF800301F2B71D9B26943
:1034A000594608780B462F2801F10101F9D05C2814
:1034B000F7D04FF0000E7146F0462020107050708B
:1034C0009070D070107150719071D07110725072F4
:1034D00090725D1E4FF0080C15F8014F0131202C41
:1034E00023D92F2C3ED05C2C3CD02E2C26D0E64568
:1034F00021D220061FD4222C1DD0AF4F01E08442E0
:1035000019D017F8010F0028F9D1A4F141001928AA
:103510001FD848F0020802F80E4015F8014F0EF1CE
:10352000010E202C01F10101DBD803EB010B042378
:10353000BEF1000F2CD10620BDE8F88FBCF1080FBA
:10354000F9D14FEA8808E6465FFA88F84FF00B0C8D
:10355000C2E7A4F161001928DDD8203CE4B248F0AC
:103560000108D8E703EB010B0023BEF1000FE2D006
:103570000EE000240BF1010BB4609BF800301F2B10
:103580008DD830462146FFF72BFF7461BDE8F88FD8
:1035900011783046E52904BF05211170BCF1080FF0
:1035A00004BF4FEA88085FFA88F808F00301012990
:1035B00008F00C0808BF43F01003B8F1040F08BF6F
:1035C00043F00803D3720021FFF70AFF002867D1F8
:1035D000D6F800A03569DAF82C40AC4216D09AF83B
:1035E00004300AF13008002B6ED141469AF80100F0
:1035F0002A460123FFF71EF930B14FF0FF33CAF816
:103600002C300120BDE8F88FCAF82C507369197866
:10361000002900F0A280D87A07073CD4B269147858
:10362000A14238D15C7851788C4234D19C78917821
:103630008C4230D1DC78D1788C422CD11C79117934
:103640008C4228D15C7951798C4224D19C79917932
:103650008C4220D1DC79D1798C421CD11C7A117A30
:103660008C4218D15C7A517A8C4214D19C7A917A2E
:103670008C4210D1D17A4C0700F19880C10640F1FC
:1036800090803168DC7E0878997E032841EA042125
:103690004DD0B16004E7F4880134A3B233B90420FB
:1036A000B3690428DB7A5AD0BDE8F88F3569002D5C
:1036B000F5D014F00F072FD0D6F800A00AEB47136F
:1036C00030337361F48086E741469AF80100224660
:1036D0000123FFF737F9E0B9DAF82020DAF81830DB
:1036E000A21A9A428AF80400BFF47FAF9AF80370D6
:1036F000012F02D879E7DAF818301C44013F22463E
:103700009AF8010041460123FFF71CF9012FF2D17D
:103710006BE70120BDE8F88FF16801353561D6F817
:1037200000A059B9BAF808309C42B8D2C6E7587D13
:103730001B7D43EA002341EA0341AAE79AF80230DD
:10374000013B13EA1413B9D1012903D9DAF8143073
:1037500099420BD30220BDE8F88FB369DB7A13F0EE
:10376000040F14BF04200520BDE8F88F5046FFF772
:1037700001FD01281DD9451C16D0D6F800A0DAF8A5
:10378000143098428BD2023B821E9A42F0603BBFBB
:103790009AF80290DAF82830002509FB02353561E5
:1037A0008CE70520BDE8F88F012079E70020BDE80F
:1037B000F88F022074E700BF5C9700082DE9F04FF6
:1037C00083B00546009100296BD1C6684369002E7D
:1037D00077D10126344601349C4205F130075AD393
:1037E000012E40F22B81022B57D902242B78022B79
:1037F00000F09580032B68D0012B4ED12A6A04EB90
:10380000540AD5F82C8002EB5A29C8450FD02A79E2
:10381000002A40F0CC80687839464A460123FFF7F9
:1038200009F8002840F098802A6AC5F82C90CAF35D
:1038300008032B440AF1010A02EB5A2B93F83030AB
:10384000D94501930DD02B79002B40F0F980687891
:1038500039465A460123FEF7EDFF00287CD1C5F812
:103860002CB0CAF3080A05EB0A0393F83030019A2A
:10387000E10742EA03204CBF0009C0F30B00002817
:1038800000F00281012809D0B44200F0D7806B69B2
:1038900001349C42A4D2012CA8D8012003B0BDE879
:1038A000F08F0129F9D943699942F6D2FFF762FCFA
:1038B0000128F2D9441C52D06B698342EED8009E95
:1038C00088E79E4228BF012684E72B6AD5F82CA002
:1038D00003EBD418D0450CD02B79002B40F08A8014
:1038E0006878394642460123FEF7A4FFA0BBC5F81D
:1038F0002C80A30003F4FE7303F130012944CA783D
:1039000091F802E02B441206487893F8303042EAEE
:103910000E4242EA0020184320F07040AFE72B6AC5
:10392000D5F82CA003EB1428D0450AD02B79DBB9AD
:103930006878394642460123FEF77CFF60B9C5F836
:103940002C80630003F4FF73E91891F8303091F88C
:10395000310043EA002092E74FF0FF33EB624FF073
:10396000FF3003B0BDE8F08F687839465246012336
:10397000FEF7E8FF0028F2D12A6AAB69C2EB0A021F
:103980009A422871D4D295F80390B9F1010F01D869
:10399000CEE7AB699A4409F1FF3952466878394657
:1039A0000123FEF7CFFFB9F1010FF2D1C0E768782C
:1039B00039464246FEF7C6FF0028D0D12A6AAB69D5
:1039C000C2EB08029A422871BFF425AF95F803B004
:1039D000BBF1010F01D81EE7AB6998440BF1FF3B27
:1039E0004246687839460123FEF7ACFFBBF1010F70
:1039F000F2D110E76878394652460123FEF7A2FF5C
:103A00000028ACD12A6AAB69C2EB0A029A4228713B
:103A1000BFF466AF95F80390B9F1010F01D85FE7E5
:103A2000AB699A4409F1FF39524668783946012357
:103A3000FEF788FFB9F1010FF2D151E700202DE721
:103A4000687839464A460123FEF77CFF002886D174
:103A50002A6AAB69C2EB09029A422871BFF4F7AE39
:103A600095F80380B8F1010F01D8F0E6AB699944ED
:103A700008F1FF384A46687839460123FEF762FFAD
:103A8000B8F1010FF2D1E2E66B69A3427FF605AF10
:103A9000284621466FF07042FFF70AFAD8B9009B1A
:103AA0006BB1012B1A467FF6F8AE6B699A42BFF4F0
:103AB000F4AE114628462246FFF7FAF958B92B69A9
:103AC000EC605A1C0BD06A79013B42F001022B6179
:103AD00020466A71E2E601287FF4DFAE3FE7204628
:103AE000DCE600BF2DE9F04F002183B00646FFF76A
:103AF00077FC8146002840F09480346837694FF0A5
:103B0000010AE56ABD4215D0237904F1300B002B80
:103B100065D1594660783A460123FEF78BFE40B1E5
:103B20004FF0FF33E3624FF00109484603B0BDE8B0
:103B3000F08FE76270690378E52B01D0002B36D156
:103B400034683769E56ABD420ED0237904F1300A42
:103B5000002B7FD1514660783A460123FEF76AFE7A
:103B60000028DDD17069E7620021202205F0DEF82F
:103B70007369B26943EA0201890740F09080191D18
:103B8000101D834238BF8A42C0F0898011681960D5
:103B9000516859604846117A1972517A5972927A6D
:103BA0009A72336801221A7103B0BDE8F08FF5886C
:103BB0000135ABB22BB94FF00709484603B0BDE859
:103BC000F08F3769002FF6D015F00F082CD034682D
:103BD00004EB481808F130037361F58091E759460A
:103BE00060782A460123FEF7ADFE00289BD1226AA9
:103BF000A369AA1A9A4220718BD294F80380B8F173
:103C0000010F01D885E7A3691D4408F1FF382A4652
:103C1000607859460123FEF795FEB8F1010FF2D105
:103C200077E70428C7D080E7F16801373761346847
:103C300061B1A378013B13EA1513C9D1012902D957
:103C4000636999423CD34FF002096EE723899D4294
:103C5000B1D2BDE7514660782A460123FEF772FED5
:103C600000287FF460AF226AA369AA1A9A4284F8F6
:103C70000490BFF46FAF94F80380B8F1010F01D83E
:103C800068E7A3691D4408F1FF382A466078514669
:103C90000123FEF757FEB8F1010FF2D15AE7117870
:103CA00019705178597091789970D178D9701179CB
:103CB00019715179597191799971D179D97169E7EE
:103CC0002046FFF757FA01280746BCD9441C3FF4A9
:103CD0002AAF3468626990420BD2811E023A914247
:103CE000F7603BBFA778A36A002707FB013737615E
:103CF0006EE72046F168FFF761FD074600283FF4B4
:103D00005AAF01289FD001303FF40DAF30680379DE
:103D1000002B2DD100214FF40072303005F006F851
:103D20003468B91E6369A278023B994236BFA36A20
:103D3000002302FB0133E3620AB34FF0000B05E0FE
:103D4000E36AA27801339345E36219D284F804A0B0
:103D500034680BF1010B2379002BF1D0204601913F
:103D6000FEF7BEFF00287FF4DEAE34680199E7E776
:103D7000FEF7B6FF00287FF4D6AE3068CAE7934658
:103D8000CBEB03036269E362A8E700BF2DE9F04FC4
:103D9000002303600D6885B035B32E78202E09D935
:103DA0003A2E21D02C4601E03A2B1AD014F8013FCC
:103DB000202BF9D8BE4E3468D4B104602378154660
:103DC00023B16078FEF740FCC30715D500202070B2
:103DD0006070FEF741FCC70719D5032005B0BDE8A8
:103DE000F08F6B1C9C4225D00B2005B0BDE8F08FF6
:103DF0000C2005B0BDE8F08F002D00F0C58000F06C
:103E0000040303F0FF00002BE8D00A20E6E70DB121
:103E10004107FAD400224FF0FF3504F13007227138
:103E2000E562394660780123FEF704FD38B1E562AA
:103E30000120D3E7302ED7D102350D60BAE74AF61C
:103E4000552294F82F1294F82E32E06243EA0123AF
:103E5000934200F09B800D20C0E7002594F83C20A1
:103E600094F83B3043EA0223B3F5007FF3D194F892
:103E7000471094F8463053EA012300F05081194668
:103E800094F84000A161431E012BE070E3D894F840
:103E90003D3000FB01F0A370002BDCD05A1E1A420B
:103EA000D9D194F8412094F8427042EA07273A07A2
:103EB0002781D0D194F844E094F8432052EA0E22AE
:103EC0000ED194F8522094F853C0120494F850E0A4
:103ED00042EA0C6294F851C042EA0E0242EA0C2215
:103EE00094F83FC094F83EE05EEA0C2EB3D00EEB9F
:103EF000171C84446245AED3CCEB0202B2FBF3F351
:103F0000002BA8D040F6F572934240F28A814FF61A
:103F1000F572934240F26881023305EB0E000CEB20
:103F2000050263612062A262E561002F93D194F8DB
:103F30005E0094F85FE0000494F85C2040EA0E60B4
:103F40009B0094F85DE0024303F2FF10B1EB502FA9
:103F500042EA0E236362FFF47EAF94F8611094F896
:103F600060304FF0FF3243EA0123012B4FF0800114
:103F70002261E260617100F0E1800322B388227067
:103F800001339BB2B380E380002027E794F86830C8
:103F900094F869101B0494F8662043EA016394F8CE
:103FA0006710134343EA0123424923F07F438B42C6
:103FB0003FF453AF94F8843094F885001B0494F8D0
:103FC000822043EA006394F88300134343EA00230A
:103FD00023F07F438B423FF440AF94F8F2216AB163
:103FE00094F8F82194F8F911120494F8F63142EAA1
:103FF000016294F8F711134343EA012294F8023264
:1040000000926BB194F8083294F809121B0494F8EA
:10401000062243EA016394F80712134343EA01239B
:1040200094F8122201936AB194F8182294F81912A4
:10403000120494F8163242EA016294F817121343FC
:1040400043EA012294F8223202926BB194F82832AA
:1040500094F829121B0494F8262243EA016394F889
:104060002712134343EA0123E846DFF848B00DF175
:104070001009039358F8045B35B90223C845F9D1F8
:10408000032B7FF4E8AED3E64FF0FF3A002355450B
:104090002371C4F82CA010D0607839462A46012339
:1040A000FEF7C8FB40B1C4F82CA00323E6E700BF2D
:1040B0004005002046415400E56294F82F2294F810
:1040C0002E3243EA0223684A1BB29342D5D194F8B8
:1040D000683094F869101B0494F8662043EA016381
:1040E00094F86710134343EA012323F07F435B45B1
:1040F0003FF4B4AE94F8843094F885101B0494F81F
:10410000822043EA016394F88310134343EA0123B6
:1041100023F07F435B453FF4A1AE0123AEE794F863
:10412000563094F857101B0494F8542043EA016366
:1041300094F85510134343EA0121A1E6691C204677
:10414000FEF7F4FD00287FF418AF4AF6552294F8E4
:104150002F1294F82E32677143EA012393427FF4C1
:104160000CAF94F8323094F8331094F830201B04DC
:1041700043EA016394F8311013433C4A43EA0123B4
:1041800093427FF4FAAE94F8163294F8171294F82A
:1041900014221B0443EA016394F815121343344AB2
:1041A00043EA012393427FF4E8AE94F81A0294F8AC
:1041B0001E3294F81B7294F81F5294F81C220004CB
:1041C00094F818121B0440EA076043EA056394F868
:1041D000197294F81D521343014341EA072243EA3E
:1041E00005232261E360C8E6023305EB0E02AC440E
:1041F00063612262C4F828C0E561002F3FF42BAE52
:104200005B0003F2FF130244B1EB532F6262FFF431
:1042100022AE4FF0FF33802262712361E3600222FD
:10422000ACE6023305EB0E02AC4463612262C4F8D3
:1042300028C0E561002F3FF40EAE03F0010505F242
:10424000FF1503EB430305EB53030244B1EB532F7C
:104250006262FFF400AE4FF0FF338022627123618F
:10426000E36001228AE600BF55AAFFFF5252614176
:104270007272416110B582B001900091E9B10C7881
:10428000202C09D93A2C18D0084601E03A2B11D03D
:1042900010F8013F202BF9D810490B680BB1002012
:1042A0001870019B63B10020012A0B6018700AD0BE
:1042B00002B010BD013188420CD00B2002B010BDFD
:1042C00018460B60F4E70246694601A8FFF75EFD59
:1042D00002B010BD302CDFD0EFE700BF400500205A
:1042E0002DE9F04F044693B0002873D000230D460B
:1042F0000360002975D009781746202909D93A2981
:104300006FD02A4601E03A2B68D012F8013F202BEB
:10431000F9D8DFF80085D8F80060002E70D00B9631
:10432000337807F01E09002B5FD07078FEF78CF908
:10433000C3075AD4B9F1000F01D0410767D4294609
:1043400007AB0BA81193FFF79BF807F01F0B109D0D
:10435000002875D017F01C0F3DD004283BD10BA8C6
:10436000FFF7C0FB109D002835D14BF0080B1BF068
:10437000080F00F0B1800023212146220B9E2974F2
:1043800029766A746A76AB73EB73AB75EB75EB7277
:104390002B776B77AB77EB773378E97EAA7E032BAD
:1043A00042EA0122019200F0A8800023AB76EB766E
:1043B0002B756B75019B01223271002B50D01A4670
:1043C000F36A012A029303D97369934200F2B98216
:1043D000022000E0092013B0BDE8F08F6B1C9A4268
:1043E00017D00B2013B0BDE8F08F00203070707034
:1043F000FEF732F9C20705D5032013B0BDE8F08FF0
:104400000C20E8E7B9F1000F07D0430705D50A20D3
:10441000E1E73029E5D102357BE700224FF0FF3993
:1044200006F1300A3271C6F82C905146707801239B
:10443000FEF700FA002851D0C6F82C900120CAE7F8
:10444000002D58D017F01C0F2DD0EB7A13F0110F60
:1044500037D17E078BD50820BDE7029BF3620B9E08
:104460004BF0200BF26A0023E261256284F806B06B
:10447000E3713278E97EAB7E032A43EA012322D03E
:104480002361AB7FE97F2A7F1B0443EA0163697FD5
:104490001343F288002043EA0123E3602660A280F0
:1044A000A060A06197E7EB7AD90613D4BA0701D5CB
:1044B000DB0706D407F00803DBB20B9E002BCFD13D
:1044C000D0E7072087E7697D2A7D42EA012243EA97
:1044D0000243D5E704207EE70B9EC3E74AF6552248
:1044E00096F82F1296F82E32F06243EA0123934297
:1044F0000CD00D206FE706206DE76A7D2B7D43EA27
:104500000223019A42EA034301934EE796F868308A
:1045100096F869101B0496F8662043EA016396F842
:104520006710134343EA0123B84923F07F438B42CA
:1045300000F0B58096F8843096F885001B0496F854
:10454000822043EA006396F88300134343EA002382
:1045500023F07F438B4200F0A28096F8F2316BB1DA
:1045600096F8F83196F8F9111B0496F8F62143EA0B
:10457000016396F8F711134343EA0123079396F872
:1045800002326BB196F8083296F809121B0496F8BD
:10459000062243EA016396F80712134343EA012314
:1045A000089396F812326BB196F8183296F81912F1
:1045B0001B0496F8162243EA016396F81712134378
:1045C00043EA0123099396F822326BB196F8283218
:1045D00096F829121B0496F8262243EA016396F8FE
:1045E0002712134343EA0123A1460A930DF11C0B42
:1045F0000DF12C0C01955BF8044B34B90223E34513
:10460000F9D1032B7FF475AF18E74FF0FF35002386
:10461000AC423371F5620ED07078514622460123C8
:10462000CDF808C0FEF706F9DDF808C010B1F56254
:104630000323E4E7F46296F82F2296F82E3243EA39
:104640000223734A1BB29342D8D196F8683096F889
:10465000691096F866201B0443EA016396F8671018
:10466000134343EA0123694A23F07F43934200F056
:10467000068396F8843096F8851096F882201B04FD
:1046800043EA016396F88310134343EA01235F4A28
:1046900023F07F43934200F0F2820123AFE74FF013
:1046A000000996F83C2096F83B3043EA0223B3F524
:1046B000007F7FF41EAF96F8470096F8463053EA25
:1046C000002300F09480184696F840C0B0610CF1C9
:1046D000FF33012B86F803C03FF60BAF96F83D3051
:1046E0000CFB00FCB370002B3FF403AF5A1E1A42C0
:1046F0007FF4FFAE96F842A096F8412042EA0A2ADB
:104700001AF00F0FA6F808A07FF4F3AE96F8441045
:1047100096F8432052EA01220ED196F8522096F8DC
:104720005310120496F850E042EA016196F85120C5
:1047300041EA0E0141EA022296F83FE096F83E1067
:1047400051EA0E213FF4D5AE01EB1A1EE644964520
:104750003FF6CFAECEEB0202B2FBF3F3002B3FF4F9
:10476000C8AE40F6F572934240F2C8804FF6F5723B
:10477000934240F2A580023349440EEB0902736173
:104780003162B262C6F81C90BAF1000F7FF4B1AE8C
:1047900096F85E1096F85FE0090496F85C2041EA0E
:1047A0000E619B0096F85DE00A4303F2FF11B0EB47
:1047B000512F42EA0E237362FFF49BAE96F861100C
:1047C00096F860304FF0FF3243EA0123012B4FF09F
:1047D00080013261F26071711ED00322B8F804309A
:1047E000327001339BB2A8F80430F380A7E596F845
:1047F000563096F857101B0496F8542043EA01638C
:1048000096F85500134343EA00205DE74641540003
:1048100055AAFFFF4005002009F101013046FEF7CF
:1048200085FA0028D9D14AF6552296F82F1296F823
:104830002E3286F805A043EA01239342CDD196F8A3
:10484000323096F8331096F830201B0443EA0163A7
:1048500096F831101343C14A43EA01239342BCD175
:1048600096F8163296F8171296F814221B0443EAAB
:10487000016396F815121343B94A43EA01239342A0
:10488000ABD196F81A0296F81E3296F81BC296F82B
:104890001FE296F81C22000496F818121B0440EA46
:1048A0000C6043EA0E6396F819C296F81DE21343B2
:1048B000014341EA0C2243EA0E233261F3608CE7A4
:1048C000023349440EEB090273613162B262C6F8E9
:1048D0001C90BAF1000F3FF40CAE5B0003F2FF1323
:1048E0006144B0EB532F7162FFF403AE4FF0FF331E
:1048F000802272713361F36002226FE70233494410
:104900000EEB090273613162B262C6F81C90BAF113
:10491000000F3FF4EEAD03F0010202F2FF1203EBD1
:10492000430302EB53036144B0EB532F7162FFF476
:10493000E0AD4FF0FF33802272713361F3600122EA
:104940004CE79046CDF80CB004943378022B22D07B
:10495000032B00F08280012B7FF43AAD326A08EB22
:10496000580AD6F82CB002EB5A29D94500F0F48049
:10497000327906F13007002A40F018813946707804
:104980004A460123FDF756FF002800F091804FF0C2
:10499000FF33F36252E5336AF46A03EB182AA24547
:1049A0000FD0337906F13007002B40F0B180394643
:1049B000707852460123FDF73DFF0028E7D1C6F885
:1049C0002CA04FEA480303F4FF73F218134692F841
:1049D000302093F8317042EA0727F7B1012F4146A2
:1049E000B8463FF4F5AC01297FF6F2AC73698B420F
:1049F0007FF6EEAC30460022FEF75AFA00287FF42C
:104A0000EAAC3369581C05D07279013342F00102D7
:104A1000336172717369BB4297D8019B0B9E013B56
:104A2000F76AF360029BDDF80CB0BB42049C3FF4D4
:104A300017AD337906F13008002B40F0D78041469E
:104A40007078029A0123FDF7F5FE00283FF405ADCA
:104A50004FF0FF33F3620120BDE4336AF46A03EBE5
:104A6000D81AA2450ED0337906F13007002B79D140
:104A70003946707852460123FDF7DCFE002886D1C6
:104A8000C6F82CA04FEA880101F4FE7101F1300054
:104A90003044C278837831441206407891F83070FF
:104AA00042EA034343EA00233B4323F0704794E781
:104AB000CB46326AC6F82C90CAF308030AF1010407
:104AC000334402EB542A93F83030CA45059310D092
:104AD000337906F13007002B40F0AC80394670780E
:104AE00052460123FDF7A6FE00287FF450AFC6F81A
:104AF0002CA0C4F30803334493F83070059B18F0DE
:104B0000010F43EA072714BF3F09C7F30B0764E708
:104B10003946707822460123FDF714FF00287FF400
:104B20008DAC326AB369A21A9A423071BFF43FAFBA
:104B300096F803B0BBF1010F01D838E7B3691C4404
:104B40000BF1FF3B2246707839460123FDF7FAFE50
:104B5000BBF1010FF2D12AE7CB46ADE752526141DA
:104B6000727241613946707822460123FDF7EAFEF0
:104B700000287FF463AC326AB369A21A9A4230719A
:104B8000BFF476AF96F803B0BBF1010F01D86FE721
:104B9000B3691C440BF1FF3B224670783946012370
:104BA000FDF7D0FEBBF1010FF2D161E73946707815
:104BB0005A46FDF7C7FE00287FF440AC326AB3695D
:104BC000C2EB0B029A423071BFF4D8AEF478012CDC
:104BD00001D8D3E6B3699B44013C5A467078394604
:104BE0000123FDF7AFFE012CF4D1C7E641467078F2
:104BF0003A460123FDF7A6FE00287FF41FAC326A77
:104C0000B369BA1A9A423071BFF419AF96F803909B
:104C1000B9F1010F01D812E7B3691F4409F1FF3957
:104C20003A46707841460123FDF78CFEB9F1010F39
:104C3000F2D104E7394670784A460123FDF782FE37
:104C400000287FF4FBAB326AB369C2EB09029A42D7
:104C50003071BFF443AF96F80390B9F1010F01D85A
:104C60003CE7B3699B4409F1FF395A4670783946ED
:104C70000123FDF767FEB9F1010FF2D12EE74B4694
:104C8000019DA1461C460CE59C462DE9F04F0023F2
:104C900083B0CCF80030804620B1036813B1894658
:104CA000197819B9092003B0BDE8F08FD888B8F891
:104CB00004108842F6D158788DE80410FDF7C4FC42
:104CC0009DE8041010F0010FECD198F807000028BF
:104CD000E9D198F80630DD0703D4072003B0BDE81A
:104CE000F08FD8F80830D8F80C10C3EB010A9245C1
:104CF00028BF9246BAF1000F74D0E34608F12402AF
:104D00000092C3F30804002C40F09480D8F800000F
:104D10008578013D05EA532515F0FF0500F0CD80AB
:104D2000D8F814704369023F023B9F4280F0D48060
:104D30008378D0F828C003FB07F717EB0C0600F0C8
:104D4000CB805FEA5A242E444ED02A199A4288BF5B
:104D50005C1B4078494632462346CDF804C0FDF737
:104D600069FD002840F0D38098F80630DDF804C0D3
:104D700013F0400F27D0D8F818309E1BB44222D928
:104D8000CCEB0301491BC91B009D490209EB010340
:104D900043EA050080072A464FEA462640F0BB80DA
:104DA0000431494408F12800834238BF8D42C0F0E5
:104DB000B28008F1200203F5007052F8041F43F896
:104DC000041B8342F9D1D8F808306402DBF80020D4
:104DD00023442244BAEB040AC8F80830A144CBF8B3
:104DE00000208ED100205EE7D8F81820B2421BD0F8
:104DF00098F806305B060FD5407800990123FDF73F
:104E0000A1FD002840F0838098F80630D8F8000013
:104E100023F0400388F80630407800993246012399
:104E2000FDF708FD002872D1D8F80840C8F81860CE
:104E3000C4F3080404F120024244131DC4F50074B5
:104E400049EA0301544528BF54461D1D11F0030FC4
:104E500009F104010CBF01200020A94538BF8B4295
:104E60002CBF01210021084204F1FF353AD0092C62
:104E700038D9211F89080131022D4FEA810629D92D
:104E80004F468E46002052F8041F0130864547F8F1
:104E9000041BF8D8A6423344A5EB060509EB06022D
:104EA00008D0197811702DB15978012D517001D0A9
:104EB0009B789370D8F8083088E7EBB9D8F81030B1
:104EC000012B09D95C1C22D01F46D8F80000C8F875
:104ED000143027E74A46E4E7022088F8070003B0C9
:104EE000BDE8F08F09F1FF32181913F8011B834256
:104EF00002F8011FF9D1DDE7D8F814100129EBD928
:104F000043699942E8D2FEF735F90346D8E7012014
:104F100088F80700C7E6013E09EB060308F50970AB
:104F200012F8011B824203F8011FF9D14BE700BFC1
:104F30009C462DE9F04F002383B0CCF800300546A5
:104F400020B1036813B193461A781AB9092003B047
:104F5000BDE8F08F0E468288D9889142F6D1587804
:104F6000CDF800C0FDF770FB10F0010FDDF800C0B8
:104F7000ECD1E8790028EAD1AA79930703D4072075
:104F800003B0BDE8F08FAB681BEB030F08D3E968F3
:104F900042F02002994238BFEB60AA710020D6E7A8
:104FA000BBF1000FF3D0E24605F124020092C3F3F7
:104FB0000804002C40F08E802A6892F8028008F1E4
:104FC000FF3808EA532818F0FF0811D1002B40F0F1
:104FD000E8802869002800F0EE80012800F0FA80BF
:104FE000471C00F0DB802B6968612A6803B92861DF
:104FF000AB795C0600F1B9806B695169A3F10209D4
:105000000239894580F0E6809378D2F828C009FB00
:1050100003F919EB0C0700F0DD805FEA5B244744DD
:105020004ED008EB0401994288BFC8EB03045078C6
:1050300031463A462346CDF804C0FDF783FC0028EC
:1050400040F0AC80AB69DDF804C0DF1BBC4227D95F
:10505000CCEB0301C9EB0101C8EB0101009B490244
:10506000721842EA0300800706EB472340F0B58040
:105070000431009F314405F12800824238BF8F423D
:10508000C0F0AB803B46043A05F5097052F8041FA6
:1050900043F8041B8342F9D1AB7923F04003AB7191
:1050A0006402AB682644DAF8002023442244BBEBB8
:1050B000040BAB60CAF800207FF479AFAA7966E7E9
:1050C000AB69AC68BB4202D0EB689C4278D3AF615D
:1050D000C4F308042B192433C4F5007446EA030210
:1050E0005C4528BF5C46191D12F0030F06F104024F
:1050F0000CBF012000208E4238BF93422CBF0122FA
:105100000022104204F1FF313CD0092C3AD9221F71
:105110009208013202294FEA820724D99C46904620
:10512000A6F1040E00205EF8042F013080454CF8F3
:10513000042BF8D8A7423B44A1EB070106EB07027A
:105140002AD01078187061B150780129587008D0B1
:10515000927826449A70AA79AB6842F04002AA710C
:10516000A1E72644F7E73246EBE750780099AA69B1
:105170000123FDF7E7FB88B9AB792A6823F04003E8
:10518000AB7139E73246013B264412F8011BB242AB
:1051900003F8011FF9D1DEE71646DCE70120E871CC
:1051A000D5E610466969FEF709FB00287FF415AFC4
:1051B000AB68AA79EBE610464146FEF7FFFAF4E742
:1051C000507800993A460123FDF734FB0028E5D1D9
:1051D000AC687CE70220E871B9E605F1230203F52B
:1051E000007013F8011B834202F8011FF9D153E745
:1051F00040B12DE9F84303680BB11A7822B90920B0
:10520000BDE8F88309207047D98882889142F6D199
:1052100004465878FDF718FAC207F0D4A37903F0D2
:10522000200202F0FF000AB9BDE8F8835B060CD546
:10523000214651F8243BA26958780123FDF782FBEF
:10524000B8B9A37923F04003A3712568E769EE6A32
:10525000BE4212D02B7905F13009002B3AD14946D4
:1052600068783A460123FDF7E5FA28B14FF0FF339D
:10527000EB620120BDE8F883EF62236A2120DA7A2D
:10528000462642F02002DA72E16800221977A189ED
:105290000125090A5977E1899977E17BD977216955
:1052A0001876080C070AC1F3072E997683F81BE0DD
:1052B00018755F755E769A75DA759A74DA74A379E3
:1052C000226823F02003A37115712068BDE8F8431C
:1052D000FDF76ABD4946687832460123FDF732FB87
:1052E0000028C6D12A6AAB69B21A9A422871B6D28E
:1052F00095F80380B8F1010F01D8B0E7AB691E44FF
:1053000008F1FF383246687849460123FDF71AFB59
:10531000B8F1010FF2D1A2E740B12DE9F8430368DB
:105320000BB11A7822B90920BDE8F883092070472B
:10533000D98882889142F6D104465878FDF784F9DD
:10534000C007F0D4A3799A0612D42268002AEAD0C2
:105350001378002BE7D0D188A3889942E3D1507805
:10536000FDF772F910F00100DDD12060BDE8F8838F
:1053700059060CD5214651F8243BA26958780123DF
:10538000FDF7E0FAB8B9A37923F04003A3712568CB
:10539000E769EE6AB74212D02B7905F13009002B8C
:1053A0003CD1494668783A460123FDF743FA28B1D3
:1053B0004FF0FF33EB620120BDE8F883EF62236A10
:1053C0002120DA7A462642F02002DA72E1680022D1
:1053D0001977A1890125090A5977E1899977E17B34
:1053E000D97721691876080C070AC1F3072E997638
:1053F00083F81BE018755F755E769A75DA759A7496
:10540000DA74A379226823F02003A3711571206850
:10541000FDF7CAFC002898D0BDE8F88349466878B3
:1054200032460123FDF78EFA0028C4D12A6AAB69FF
:10543000B21A9A422871B4D295F80380B8F1010FDC
:1054400001D8AEE7AB691E4408F1FF3832466878F0
:1054500049460123FDF776FAB8F1010FF2D1A0E732
:105460004FF6FE7203683A491A4088424FF0000333
:105470000260036043608360C36027D0354B98426D
:105480002AD0354B98422DD0344B984230D0344BF3
:10549000984239D0334B98423CD0334B98420FD08E
:1054A000324B98423CD0324B98423FD0314B9842DD
:1054B00042D0314B984245D0304B98421ED0704775
:1054C0002F4A536843F07063536070472C4A536807
:1054D00043F00F0353607047294A536843F0F003C9
:1054E00053607047264A536843F4706353607047B3
:1054F000234A536843F4704353607047214A53680A
:1055000043F470235360DAE71D4A536843F4702371
:10551000536070471A4A536843F4700353607047EE
:10552000184A536843F00F0353607047154A536895
:1055300043F0F00353607047124A536843F47063BA
:10554000536070470F4A536843F470435360704789
:10555000080002401C0002403000024044000240AB
:10556000580002406C0002408000024008040240E3
:105570001C0402403004024044040240580402402B
:1055800000000240000402408A6870B40D6A0B6992
:105590002A434D6913438A691D43CB6945EA0204D6
:1055A00002684D6A23438C6A1D4322F4FF43CE6890
:1055B0004A682C4323F070030D6823430360466060
:1055C0008560C26070BC704729B94FF6FE730268EF
:1055D000134003607047036843F0010303607047A2
:1055E000406880B2704700BF4FF44063C4F20103CB
:1055F0005A692DE9F04142F420445C615D684FF442
:10560000605145F0004646F400075F60C4F20001B7
:105610004FF4C2538B810A894FF46055D607C4F208
:105620000005F8D54FF44066C4F20106A9897168F7
:1056300021F0004424F4000777607369294643F49D
:1056400020427261746844F0004747F400037360BD
:10565000FF26AE810D894FF46057ED07C4F20007B5
:10566000F8D54FF44062C4F20102B98951683D4651
:1056700021F0004424F400035360566946F42041AD
:105680005161546844F0004343F4000656604FF4FF
:105690007842BA812F894FF46053FC07C4F20003AB
:1056A000F8D54FF44065C4F201059A89696880B263
:1056B00021F0004424F400066E606F691A4647F436
:1056C000204169616C6844F0004646F400076F6051
:1056D000988113894FF46054D807C4F20004F8D5B8
:1056E0004FF44067C4F20107A3897D68224E25F07C
:1056F000004020F400027A607D687968307841F0DB
:10570000004343F40006E8B97A6942F420437B6120
:10571000B968490414D539464E60A08122894FF4F6
:105720006053D207C4F20003F8D59B894D604A69E3
:1057300042F420434B618A685304EDD4BDE8F08104
:10574000BDE8F0814FF000087A69012042F420435F
:105750000E217B61FBF7F6FE0028F1D07E60A4F8F5
:105760000C8021894FF46050CA07C4F20000F8D5BC
:1057700083897D60E8E700BF480500204FF440635F
:10578000C4F201035A692DE9F04142F420455D61FC
:105790005E684FF4605446F0004747F400025A60D8
:1057A000C4F200044FF4C453A38125894FF460531D
:1057B000EF07C4F20003F8D54FF44067C4F20107C5
:1057C0009C897C6824F0004626F400027A60002858
:1057D00040F086804FF44065C4F201056E694FF4D5
:1057E000605346F420446C616868C4F2000340F0E2
:1057F00000420F0C42F400066E601D469F812C890A
:105800004FF46053E407C4F20003F8D54FF440604E
:10581000C4F201009A89426889B222F0004727F455
:105820000006466045691A4645F4204444614768CD
:1058300047F0004646F400054560998113894FF40E
:105840006054D807C4F20004F8D54FF44067C4F29E
:105850000107A3897868424B20F0004121F400023F
:105860007A607D687E68187846F0004141F4000651
:10587000E8B97A6942F420437B61B968490414D5D8
:1058800039464E60A08122894FF46053D207C4F29A
:105890000003F8D59B894D604A6942F420434B616F
:1058A0008A685304EDD4BDE8F081BDE8F0814FF083
:1058B00000087A69012042F420430E217B61FBF746
:1058C00041FE0028F1D07E60A4F80C8020894FF4BE
:1058D0006051C207C4F20001F8D58B897D60E8E70A
:1058E0007C69050C44F420467E617A681C4642F0CF
:1058F000004646F400027A609D8127894FF4605388
:10590000FE07C4F20003F8D54FF44066C4F2010666
:105910009C89756884B225F0004020F40002726012
:105920007769184647F420457561726842F0004770
:1059300047F4000575609C8106894FF46053F507B4
:10594000C4F20003F8D54FF44064C4F201049B890B
:10595000606820F0004222F4000767603AE700BF69
:10596000480500204FF44063C4F2010359692DE952
:10597000F04741F420445C615D684FF4605245F0AB
:105980000046C4F2000246F400075F6011469081B1
:105990000A894FF46053D407C4F20003F8D54FF4DA
:1059A000406AC4F2010A9A89DAF8044000F08000E3
:1059B00024F0004525F4000687B2CAF80460002FE1
:1059C0002FD1524908784FF44065C4F201056E6842
:1059D0006F6847F0004444F40007002851D04FF4AA
:1059E0006054DFF83091C4F200044FF00008696998
:1059F000012041F420436B610E21FBF7A3FD6F6092
:105A0000A4F80C8022894FF46053D107C4F200033C
:105A1000F8D599896E60A9F800100028E7D1BDE893
:105A2000F087DFF8E880DAF80450DAF8042098F814
:105A3000007042F0004444F40006002F43D1504669
:105A4000446944F4204242618168466001F4804424
:105A50009F8119894FF46052C907C4F20002F8D53A
:105A600091894FF4406289B2C4F201024560002C72
:105A7000E6D156685568264B45F00047198047F433
:105A800000074FF440604FF46051C4F20100C4F2CB
:105A900000010025446944F4204242618368476064
:105AA00003F480448D810A894FF46053D207C4F215
:105AB0000003F8D59A89466093B2002CEAD11548C4
:105AC0000380BDE8F087124F1C464FF00009DAF85A
:105AD0001430012043F420420E21CAF81420FBF7B1
